S00B00005254432E7372656330
S11300000C946B000C9488000C9488000C94880069
S11300100C9488000C9488000C9488000C9488003C
S11300200C9488000C9488000C9488000C9488002C
S11300300C9488000C9488000C9488000C9488001C
S11300400C9488000C9488000C9488000C9488000C
S11300500C94880007634236B79BD8A71A396856B0
S113006018AEBAAB558C1D3CB7CC5763BD6DEDFDD6
S1130070753EF6177231BF000000803F0800000093
S1130080BE922449123EABAAAA2ABECDCCCC4C3E89
S113009000000080BEABAAAAAA3E00000000BF0078
S11300A00000803F0000000000084178D3BB438774
S11300B0D1133D190E3CC3BD4282AD2B3E68EC8288
S11300C076BED98FE1A93E4C80EFFFBE01C4FF7F0D
S11300D03F000000000011241FBECFE5D8E0DEBFC2
S11300E0CDBF10E0A0E6B0E0EAEAF2E102C005907C
S11300F00D92A03BB107D9F720E0A0EBB0E001C01E
S11301001D92AB3BB207E1F70E941B020C9453090A
S11301100C940000613049F028F0623041F0633003
S113012041F009C00898099806C0089A09980898E7
S1130130099A83E081B961B170E080E090E00E94A7
S1130140E9039B01AC0160E070E080E890E40E9468
S113015077049B01AC010E94DC029B01AC0160E0CE
S113016070E080E892E40E9448030E94BA0360B9F8
S1130170089584EA86BF06B607FEFDCF81B1887F65
S1130180883071F463B984E886BF06B607FEFDCFF4
S113019081B1887F883131F0803231F083E0089575
S11301A080E0089581E0089582E0089584EA86BF9E
S11301B006B607FEFDCF81B1887F803171F463B943
S11301C084E886BF06B607FEFDCF81B1887F803400
S11301D031F0883431F083E0089580E0089581E0BF
S11301E0089582E0089563B984E886BF06B607FEE1
S11301F0FDCF81B1887F883221F0803321F082E005
S1130200089580E0089581E0089584EC86BF06B6E1
S113021007FEFDCF83B1089584E986BF06B604FCCA
S1130220FDCF089588B38F70962F907F892B88BB5C
S1130230C098C19A0000C19882E48A95F1F700C081
S113024088B38F7090E1699FB0011124682B68BB5B
S1130250C19A0000C19883EF91E00197F1F700C0C3
S11302600000089588B38F70962F907F892B88BBE8
S1130270C09AC19A0000C19882E48A95F1F700C03F
S113028088B38F7090E1699FB0011124682B68BB1B
S1130290C19A0000C19883EF91E00197F1F700C083
S11302A000000895CF93DF93EC018FEF87BB87E8BD
S11302B093E10197F1F700C0000062E0CE010E94D3
S11302C0120168E2CE010E9412016CE0CE010E948C
S11302D0120166E0CE010E94120161E0CE010E948B
S11302E0120183EF91E00197F1F700C00000DF9164
S11302F0CF910895EF92FF920F931F93CF93DF93C3
S1130300EB016881662369F07C01219600E010E02E
S1130310C7010E9432010F5F1F4F69916111F8CF2D
S113032002C000E010E0802FDF91CF911F910F9168
S1130330FF90EF9008950F931F93CF93DF938C0159
S1130340E901611108C0403178F44F70642F60688E
S11303500E94120109C0613039F4403128F44F7011
S1130360642F606C0E941201BE01C8010E947A01D0
S1130370DF91CF911F910F910895CF93C82F60ED16
S11303808AEB90E00E94B9006C2F8AEB90E00E9407
S1130390F30061ED8AEB90E00E94D6008AEB90E0D6
S11303A00E9405018093B9008AEB90E00E94050148
S11303B08093B8008AEB90E00E9405018093B70017
S11303C08AEB90E00E940C01CF910895CF93C82F3F
S11303D060ED8AEB90E00E94B9006C2F8AEB90E00C
S11303E00E94F30061ED8AEB90E00E94D6008AEB54
S11303F090E00E9405018093B6008AEB90E00E9491
S1130400050190E09093B4008093B3008AEB90E0F0
S11304100E9405018093B5008AEB90E00E940501DB
S113042090E09093B2008093B1008AEB90E00E9438
S11304300C01CF910895CF93DF93CDB7DEB7A29788
S11304400FB6F894DEBF0FBECDBF8EE0E0E6F0E05D
S1130450DE01559601900D928A95E1F760E08AEBF2
S113046090E00E948A0080EB90E00E9452010F2EDF
S1130470FEE6CF2EF0E0DF2EF02D8E010F5F1F4F32
S11304800F2EF1E48F2EFDE49F2EF02D0F2EF0E5BC
S1130490AF2EFDE4BF2EF02D0F2EFFE7EF2EF0E080
S11304A0FF2EF02D80E00E94BD018091B70086FFF1
S11304B033C09091B9001F929F939091B8001F92FE
S11304C09F938F711F928F93DF92CF921F930F93FD
S11304D00E9469068091B7000FB6F894DEBF0FBE84
S11304E0CDBF85FF09C0F80101900020E9F73197DD
S11304F0B182A082128208C0F80101900020E9F7BD
S11305003197918280821282980140E060E080EB12
S113051090E00E949B011DC09091B9001F929F938F
S11305209091B8001F929F938F711F928F93DF92C7
S1130530CF921F930F930E946906980140E060E0F8
S113054080EB90E00E949B010FB6F894DEBF0FBED3
S1130550CDBF83E00E94E601E091B600F0E0319760
S1130560EE0FFF1FE00FF11F85898F9384898F930E
S11305708091B2008F938091B1008F938091B500E8
S11305801F928F938091B4008F938091B3008F93C7
S1130590FF92EF921F930F930E946906980140E027
S11305A061E080EB90E00E949B010FB6F894DEBFFF
S11305B00FBECDBF77CF5058BB27AA270E94F302A6
S11305C00C943D040E942F0438F00E94360420F05D
S11305D039F49F3F19F426F40C942C040EF4E0959E
S11305E0E7FB0C942604E92F0E944E0458F3BA1733
S11305F0620773078407950720F079F4A6F50C9435
S113060070040EF4E0950B2EBA2FA02D0B01B90146
S113061090010C01CA01A0011124FF27591B99F074
S1130620593F50F4503E68F11A16F040A22F232F80
S1130630342F4427585FF3CF469537952795A795D0
S1130640F0405395C9F77EF41F16BA0B620B730B77
S1130650840BBAF09150A1F0FF0FBB1F661F771FE8
S1130660881FC2F70EC0BA0F621F731F841F48F49D
S1130670879577956795B795F7959E3F08F0B0CF26
S11306809395880F08F09927EE0F9795879508950D
S11306900E945C030C943D040E94360458F00E94AE
S11306A02F0440F029F45F3F29F00C9426045111E3
S11306B00C9471040C942C040E944E0468F3992346
S11306C0B1F3552391F3951B550BBB27AA2762174A
S11306D07307840738F09F5F5F4F220F331F441F57
S11306E0AA1FA9F335D00E2E3AF0E0E832D091508B
S11306F05040E695001CCAF72BD0FE2F29D0660F78
S1130700771F881FBB1F261737074807AB07B0E8BA
S113071009F0BB0B802DBF01FF2793585F4F3AF0C0
S11307209E3F510578F00C9426040C9471045F3FAD
S1130730E4F3983ED4F3869577956795B795F79546
S11307409F5FC9F7880F911D9695879597F908952E
S1130750E1E0660F771F881FBB1F621773078407CA
S1130760BA0720F0621B730B840BBA0BEE1F88F7D9
S1130770E09508950E94560488F09F5798F0B92F89
S11307809927B751B0F0E1F0660F771F881F991FC2
S11307901AF0BA95C9F714C0B13091F00E947004F0
S11307A0B1E008950C947004672F782F8827B85F00
S11307B039F0B93FCCF3869577956795B395D9F71A
S11307C03EF490958095709561957F4F8F4F9F4F24
S11307D00895E89409C097FB3EF490958095709530
S11307E061957F4F8F4F9F4F9923A9F0F92F96E979
S11307F0BB279395F695879577956795B795F111EE
S1130800F8CFFAF4BB0F11F460FF1BC06F5F7F4F8A
S11308108F4F9F4F16C0882311F096E911C077239C
S113082021F09EE8872F762F05C0662371F096E8A5
S1130830862F70E060E02AF09A95660F771F881F74
S1130840DAF7880F9695879597F9089597F99F6732
S113085080E870E060E008959FEF80EC0895002444
S11308600A941616170618060906089500240A9411
S113087012161306140605060895092E0394000C97
S113088011F4882352F0BB0F40F4BF2B11F460FF26
S113089004C06F5F7F4F8F4F9F4F089557FD90584F
S11308A0440F551F59F05F3F71F04795880F97FB30
S11308B0991F61F09F3F79F08795089512161306EA
S11308C01406551FF2CF4695F1DF08C01616170619
S11308D01806991FF1CF869571056105089408954E
S11308E0E894BB2766277727CB0197F90895FA0187
S11308F0EE0FFF1F309621053105A1F16115710539
S113090061F48038BFE39B0749F16894903881050E
S113091061F08038BFEF9B0741F099234AF5FF3F10
S1130920E1053105210519F1E8940894E795D90109
S1130930AA2329F4AB2FBE2FF85FD0F310C0FF5FBA
S113094070F4A695E0F7F73950F019F0FF3A38F44F
S11309509F779F930DD00F9007FC9058089546F011
S11309600C942C0460E070E080E89FE308954FE766
S11309709F775F934F933F932F930E9472052F911C
S11309803F914F915F910E94EE050C94CF0429F49E
S113099016F00C9426040C9470040C942C040E94FD
S11309A05604A8F39638A0F707F80F92E8942BE3BF
S11309B03AEA48EB5FE70E9404060F920F920F9207
S11309C04DB75EB70F920E94BA05E4E5F0E00E94CD
S11309D001054F915F91EF91FF91E595EE1FFF1F88
S11309E049F0FE57E0684427EE0F441FFA95E1F7FB
S11309F04195550B0E9434050F9007FE0C94280571
S1130A000895DF93CF931F930F93FF92EF92DF929A
S1130A107B018C01689406C0DA2EEF010E94010666
S1130A20FE01E894A5912591359145915591A6F340
S1130A30EF010E94F302FE019701A801DA9469F71D
S1130A40DF90EF90FF900F911F91CF91DF91089568
S1130A509B01AC0160E070E080E89FE30C944803E4
S1130A600C9426040C945B060E945604D8F3992334
S1130A70C9F3940F511DA3F39150504094F059F0D1
S1130A80882332F0660F771F881F91505040C1F7BA
S1130A909E3F51052CF7880F911D9695879597F9E0
S1130AA008955F3FACF0983E9CF0BB278695779500
S1130AB06795B79508F4B1609395C1F7BB0F58F7E4
S1130AC011F460FFE8CF6F5F7F4F8F4F9F4FE3CFED
S1130AD00C94710416F00C945B060C942C0468942A
S1130AE00C9426040E945604A8F39923C1F3AEF390
S1130AF0DF93CF931F930F93FF92C92FDD27882392
S1130B002AF02197660F771F881FDAF720E030E07C
S1130B1040E85FEB9FE3883920F0803E38F021966F
S1130B208F770E94DC02ECE7F0E004C00E94DC0254
S1130B30E9EAF0E00E9401058B01BE01EC01FB2E05
S1130B406F5771097595771F880B990B0E94EB03FA
S1130B5028E132E741E35FE30E940106AF2D9801EB
S1130B60AE01FF900F911F91CF91DF910E94F3028C
S1130B700C943D04FA01DC01AA0FBB1F9B01AC01DC
S1130B80BF5728F4222733274427507820C0B75171
S1130B9090F4AB2F0024469537952795011CA39517
S1130BA0D2F3002071F0220F331F441FB395DAF300
S1130BB00ED00C94DB0261307105A0E88A07B946B7
S1130BC030F49B01AC01662777278827907830960C
S1130BD021F0208331834283538308950E940106C8
S1130BE00C943D040E942F0438F00E94360420F037
S1130BF0952311F00C9426040C942C0411240C94C9
S1130C0071040E944E0470F3959FC1F3950F50E058
S1130C10551F629FF001729FBB27F00DB11D639FAA
S1130C20AA27F00DB11DAA1F649F6627B00DA11D50
S1130C30661F829F2227B00DA11D621F739FB00DF6
S1130C40A11D621F839FA00D611D221F749F332766
S1130C50A00D611D231F849F600D211D822F762FFF
S1130C606A2F11249F5750409AF0F1F088234AF0DC
S1130C70EE0FFF1FBB1F661F771F881F9150504048
S1130C80A9F79E3F510580F00C9426040C9471043E
S1130C905F3FE4F3983ED4F3869577956795B795CF
S1130CA0F795E7959F5FC1F7FE2B880F911D9695E9
S1130CB0879597F908959F3F31F0915020F48795D7
S1130CC077956795B795880F911D9695879597F9B0
S1130CD00895AEE0B0E0EFE6F6E00C942A090D8941
S1130CE01E8986E08C831A8309838FEF9FE79E8396
S1130CF08D83AE01475E5F4F6F89788DCE0101967B
S1130D000E948B06EF81F885E00FF11F10822E966A
S1130D10E4E00C944609ABE0B0E0E1E9F6E00C94C1
S1130D201C096C017B018A01FC01178216828381F4
S1130D3081FFCCC1CE0101963C01F6019381F701FC
S1130D4093FD859193FF81917F01882309F4BAC1B2
S1130D50853239F493FD859193FF81917F0185322A
S1130D6029F4B60190E00E948208E7CF912C212C4F
S1130D70312CFFE1F315D8F08B3279F038F480325E
S1130D8079F08332A1F4232D20611DC08D3261F0EE
S1130D90803369F4232D216016C0832D8260382EA0
S1130DA0E32DE4603E2E2AC0F32DF8601DC037FC0D
S1130DB02DC020ED280F2A3040F08E32B9F436FCD5
S1130DC081C1232D2064322E19C036FE06C08AE06C
S1130DD0989E200D1124922E11C0EAE02E9E200D23
S1130DE01124222EF32DF0623F2E08C08C3621F4FC
S1130DF0832D8068382E02C0883641F4F70193FDB4
S1130E00859193FF81917F018111B3CF982F9F7DAD
S1130E109554933028F40C5F1F4F9FE399830DC0C2
S1130E20833631F0833771F0833509F059C021C01E
S1130E30F801808189830E5F1F4F88248394912C4D
S1130E40530113C02801F2E04F0E511CF801A08099
S1130E50B18036FE03C0692D70E002C06FEF7FEFF2
S1130E60C5010E9477084C018201F32DFF773F2EC4
S1130E7016C0280122E0420E511CF801A080B18066
S1130E8036FE03C0692D70E002C06FEF7FEFC5012D
S1130E900E946C084C01F32DF0683F2E820133FC54
S1130EA01BC0822D90E088169906B0F4B60180E24A
S1130EB090E00E9482082A94F4CFF50137FC8591D2
S1130EC037FE81915F01B60190E00E9482082110F3
S1130ED02A9421E0821A91088114910471F7E8C0E0
S1130EE0843611F0893641F5F80137FE07C0608178
S1130EF07181828193810C5F1F4F08C06081718171
S1130F00072E000C880B990B0E5F1F4FF32DFF76F5
S1130F103F2E97FF09C090958095709561957F4FFE
S1130F208F4F9F4FF0683F2E2AE030E0A3010E94CC
S1130F30BE08882E861845C0853731F4232D2F7EB0
S1130F40B22E2AE030E025C0932D997FB92E8F363A
S1130F50C1F018F4883579F0B5C0803719F08837B6
S1130F6021F0B0C0E92FE061BE2EB4FE0DC0FB2D10
S1130F70F460BF2E09C034FE0AC0292F2660B22EA9
S1130F8006C028E030E005C020E130E002C020E1E6
S1130F9032E0F801B7FE07C06081718182819381DC
S1130FA00C5F1F4F06C06081718180E090E00E5F8E
S1130FB01F4FA3010E94BE08882E8618FB2DFF77C1
S1130FC03F2E36FE0DC0232D2E7FA22E891458F4F9
S1130FD034FE0BC032FC09C0832D8E7EA82E05C0C2
S1130FE0B82CA32C03C0B82C01C0B92CA4FE0FC08C
S1130FF0FE01E80DF11D8081803321F49A2D997E44
S1131000A92E09C0A2FE06C0B394B39404C08A2DCD
S1131010867809F0B394A3FC11C0A0FE06C0B214F4
S113102088F4280C922C9B180EC0B21460F4B601FC
S113103080E290E00E948208B394F7CFB21418F4CF
S11310402B1802C0982C212CA4FE10C0B60180E3FA
S113105090E00E948208A2FE17C0A1FC03C088E7AA
S113106090E002C088E590E0B6010CC08A2D867835
S113107059F0A1FE02C08BE201C080E2A7FC8DE220
S1131080B60190E00E948208891438F4B60180E326
S113109090E00E9482089A94F7CF8A94F301E80DB5
S11310A0F11D8081B60190E00E9482088110F5CF85
S11310B0222009F442CEB60180E290E00E94820828
S11310C02A94F6CFF6018681978102C08FEF9FEFB5
S11310D02B96E2E10C943809FC01059061507040B4
S11310E00110D8F7809590958E0F9F1F0895FC01ED
S11310F06150704001900110D8F7809590958E0F43
S11311009F1F08950F931F93CF93DF93FB012381B8
S113111021FD03C08FEF9FEF2CC022FF16C0468134
S11311205781248135814217530744F4A081B1814A
S11311309D012F5F3F4F318320838C93268137811C
S11311402F5F3F4F3783268314C08B01EC01FB01D3
S11311500084F185E02D0995892BE1F6D8011696D6
S11311608D919C911797019617969C938E93169741
S1131170CE01DF91CF911F910F910895FA01AA2713
S1131180283051F1203181F1E8946F936E7F6E5FC6
S11311907F4F8F4F9F4FAF4FB1E03ED0B4E03CD074
S11311A0670F781F891F9A1FA11D680F791F8A1F57
S11311B0911DA11D6A0F711D811D911DA11D20D0BE
S11311C009F468943F912AE0269F11243019305D78
S11311D03193DEF6CF010895462F4770405D419369
S11311E0B3E00FD0C9F7F6CF462F4F70405D4A33B6
S11311F018F0495D31FD4052419302D0A9F7EACF7E
S1131200B4E0A6959795879577956795BA95C9F7AC
S113121000976105710508959B01AC010A2E06949F
S11312205795479537952795BA95C9F7620F731F58
S1131230841F951FA01D08952F923F924F925F9295
S11312406F927F928F929F92AF92BF92CF92DF92D2
S1131250EF92FF920F931F93CF93DF93CDB7DEB737
S1131260CA1BDB0B0FB6F894DEBF0FBECDBF0994CB
S11312702A88398848885F846E847D848C849B8422
S1131280AA84B984C884DF80EE80FD800C811B8130
S1131290AA81B981CE0FD11D0FB6F894DEBF0FBE5F
S10D12A0CDBFED010895F894FFCFCF
S11312AA930097009B009F00A300A700AB00253082
S11312BA32783A253032783A25303278202000259F
S11312CA3032782F253032782F2530327820253362
S11312DA73200053756E004D6F6E00547565005788
S11312EA65640054687500467269005361740000AD
S9030000FC
