S014000044485431312053656E736F722E7372656334
S11300000C942A000C9447000C9447000C9447006D
S11300100C9447000C9447000C9447000C94470040
S11300200C9447000C9447000C9447000C94470030
S11300300C9447000C9447000C9447000C94470020
S11300400C9447000C9447000C9447000C94470010
S11300500C94470011241FBECFE5D8E0DEBFCDBF0E
S113006010E0A0E6B0E0E2EAF4E002C005900D92F0
S1130070A038B107D9F720E0A0E8B0E001C01D9294
S1130080A738B207E1F70E946D010C944F020C945B
S1130090000088B38F70962F907F892B88BBC098FF
S11300A0C19A0000C19882E48A95F1F700C088B330
S11300B08F7090E1699FB0011124682B68BBC19ACD
S11300C00000C19883EF91E00197F1F700C00000B0
S11300D0089588B38F70962F907F892B88BBC09A20
S11300E0C19A0000C19882E48A95F1F700C088B3F0
S11300F08F7090E1699FB0011124682B68BBC19A8D
S11301000000C19883EF91E00197F1F700C000006F
S11301100895CF93DF93EC018FEF87BB87E893E1DA
S11301200197F1F700C0000062E0CE010E9449008F
S113013068E2CE010E9449006CE0CE010E944900B1
S113014066E0CE010E94490061E0CE010E944900B0
S113015083EF91E00197F1F700C00000DF91CF91A8
S11301600895EF92FF920F931F93CF93DF93EB01C8
S11301706881662369F07C01219600E010E0C701E4
S11301800E9469000F5F1F4F69916111F8CF02C08F
S113019000E010E0802FDF91CF911F910F91FF902D
S11301A0EF9008950F931F93CF93DF93CDB7DEB7EE
S11301B0A1970FB6F894DEBF0FBECDBF8C01CB0163
S11301C0413031F098F0423051F04330B1F020C06A
S11301D042E0BE016F5F7F4F0E941A0219C048E0DF
S11301E0BE016F5F7F4F0E941A0212C04AE0BE0137
S11301F06F5F7F4F0E941A020BC040E1BE016F5F28
S11302007F4F0E941A0260E670E0C8010E94B100AC
S1130210BE016F5F7F4FC8010E94B100A1960FB667
S1130220F894DEBF0FBECDBFDF91CF911F910F9128
S11302300895611108C0403178F44F70642F6068EC
S11302400E9449000895613039F4403128F44F7018
S1130250642F606C0E9449000895CF93DF93EC01F2
S113026061E00E94490083EF91E00197F1F700C03B
S1130270000060E8CE010E944900DF91CF9108950B
S11302808E9A96988FE39CE90197F1F700C00000DD
S1130290969A08958E988699FECF869BFECF86996E
S11302A0FECF089588E0869BFECF90E59A95F1F7FE
S11302B0869B07C090918600990F91609093860069
S11302C005C090918600990F909386008699FECF81
S11302D0815049F780918600089580E890E00E945B
S11302E0890080E890E00E942D0140E060E080E811
S11302F090E00E94190163E670E080E890E00E94BB
S1130300B10040E061E080E890E00E9419016FE6EE
S113031070E080E890E00E94B1000E9440010E94D9
S11303204A010E945201809385000E9452018093E9
S113033084000E945201809383000E9452018093A2
S113034082000E9452018093810090918500209147
S1130350840030E0290F311D90918300290F311D55
S113036090918200290F311D90E02817390769F018
S113037040E060E080E890E00E94190167E770E0E7
S113038080E890E00E94B1004EC04BE060E080E85D
S113039090E00E9419016091850070E040E080E8DF
S11303A090E00E94D2006EE280E890E00E94690032
S11303B06091840070E040E080E890E00E94D20008
S11303C065E280E890E00E94690046E061E080E830
S11303D090E00E9419016091830070E040E080E8A1
S11303E090E00E94D2006EE280E890E00E946900F2
S11303F06091820070E040E080E890E00E94D200CA
S11304006DE770E080E890E00E94B10060918100A7
S113041070E040E080E890E00E94D20060E280E872
S113042090E00E9469008FE19EE40197F1F700C01B
S1130430000073CFBB274A3031F4992322F4BDE284
S1130440909581959F4F0C942602BB27FB0155275D
S1130450AA27880F991FAA1FA41710F0A41B83951D
S11304605051B9F7A05DAA3308F0A95DA193009794
S113047079F7B111B1931192CB010C943F02DC01D5
S1130480FC01672F71917723E1F7329704C07C91C7
S11304906D9370836291AE17BF07C8F30895F89403
S10504A0FFCF88
S11304A230780048756D6964697479203D20005480
S11304B2656D70203D20004572726F72004320000A
S9030000FC
