S01F00004D756C7469706C657820536576656E205365676D656E742E737265632D
S11300000C942A000C943F000C943F000C943F0085
S11300100C943F000C943F000C943F000C943F0060
S11300200C943F000C943F000C943F000C943F0050
S11300300C943F000C943F000C943F000C943F0040
S11300400C943F000C943F000C943F000C943F0030
S11300500C943F0011241FBECFE5D8E0DEBFCDBF16
S113006010E0A0E6B0E0E6EEF0E002C005900D92EC
S1130070A436B107D9F70E946C000C9471000C945B
S11300800000E0E6F0E080818BBBDC9A8FE39CE922
S11300900197F1F700C00000DC9881818BBBDD9AE9
S11300A08FE39CE90197F1F700C00000DD9882819D
S11300B08BBBDE9A8FE39CE90197F1F700C0000047
S11300C0DE9883818BBBDF9A8FE39CE90197F1F77C
S11300D000C00000DF9808958FEF8ABB0E944100A2
S10900E0FDCFF894FFCFF0
S10700E63F065B4F23
S9030000FC
