S02300004E6F6B6961353131302047726170686963616C20446973706C61792E73726563A7
S11300000C942A000C9447000C9447000C9447006D
S11300100C9447000C9447000C9447000C94470040
S11300200C9447000C9447000C9447000C94470030
S11300300C9447000C9447000C9447000C94470020
S11300400C9447000C9447000C9447000C94470010
S11300500C94470011241FBECFE5D8E0DEBFCDBF0E
S113006012E0A0E6B0E0E0E1F2E002C005900D92FB
S1130070A835B107D9F722E0A8E5B2E001C01D9286
S1130080AA35B207E1F70E9449000C9406010C94CA
S1130090000088E592E00E94F90089E592E00E9460
S11300A0840089E592E00E94B30040E860E489E5B9
S11300B092E00E94A40060E670E089E592E00E946C
S11300C0CC0080E090E008951F93CF93DF93EC0180
S11300D0162FC1980E94F500612FCE010E940101E4
S11300E0C19ACE010E94F700DF91CF911F9108952C
S11300F0C0982FEF80E792E0215080409040E1F7D4
S113010000C00000C09A0895CF93DF93EC010E94D1
S1130110780061E2CE010E94640060ECCE010E948E
S1130120640067E0CE010E94640063E1CE010E9496
S1130130640060E2CE010E9464006CE0CE010E9483
S11301406400DF91CF9108951F93CF93DF93EC0167
S1130150142F0E946400612FCE010E946400DF917D
S1130160CF911F9108950F931F93CF93DF938C0129
S11301700E94F500C19AC8EFD1E060E0C8010E9476
S113018001012197D1F7C198C8010E94F700DF91BE
S1130190CF911F910F910895CF92DF92EF92FF922A
S11301A00F931F93CF93DF93C82ED92E8B01E82E84
S11301B0F92E0E94F500C19AE80108501E4F69917A
S11301C08E2D9F2D0E940101C017D107C1F7C19840
S11301D08C2D9D2D0E94F700DF91CF911F910F91DF
S11301E0FF90EF90DF90CF900895C4980895C49A3B
S11301F0089583EB87BBC09ABE98C49A81E58DB9F4
S113020008956FB9779BFECF8FB10895F894FFCF0F
S11302100000000000FEFEFEFEFEFEBEFEFEFEFE30
S11302207E6E0000000006000000000000000000D8
S11302300080BE7EFE7EFEC0C0C0FEFEFEFEFEFE50
S1130240BEC0E080E800000080FEFEFEFEFEFEFE72
S1130250FEFEFEFC00FEE0000000FEFEFEFEFEFED2
S1130260BA000002008090D8FBFFFFFFFBF9DFFF1C
S1130270FFFEF3FBDFBFFB8E6CFFFFFEFCE0000024
S113028000FE3F87030181E1C1C1C3CFFFFFFFFF30
S1130290FFFFFFFFFFFFFF80FFC00000C1CFFFFF94
S11302A0FFFFFFFFFFFFFFFF3CFFFF80000CFFFF8E
S11302B0FFFFFFFFFF28007EF8FFFFFFFFFFFDFDAC
S11302C0FFBFFFFFFFFFFFEFFFFFFFFF7FFFFFFF0A
S11302D0FFFFDA00FFFFC081D8F3E1F0F8FEFEFF74
S11302E0FFFFFFFFFFFFFFFFFFFFFF71FFEE406017
S11302F070FFF7FFFFFFFFFFFFFFFFFF80FFFF7BA4
S11303000000FFFFFF7FFFFFFFFE207FCDFFFFFF09
S1130310FFFCFFFFFFFFFFFFFFFFFFFFFFFF7F7FEC
S1130320FFFFFFF9FD7FFE5FFFFFFDFDFEFFFFFF07
S11303309FC7CFDFFBFFF7FFFFFFFFBB8F87830163
S113034000183E1E3C1C1F99E9E7EFFFFFFFFFFF6B
S1130350FFFFF7DFDFF5FFFFFDB1E1C0C0C1C1C0A2
S1130360FFFFFFFFFFFBF9FDFF7FFFFFFFFFFF9193
S1130370F090E7DCFFFFFF7FEEF7FFFFF97BFFEF75
S1130380FFFFFFFFFFFFFFFFFFFFFFFFFFFFFFFF79
S1130390FFFFFFFFFFFEFEFEFEFEFFFFFFFFFFFF6E
S11303A0FFFF7F7F7FFFFFFFFFFFFFFFFFEFFF6F79
S11303B0FFEEC3C7FFFFFFFFFF8FFFFFFFFFFFFF3E
S11303C0FFFFFFFFFFFFFFFDF9FFFFFFFEFFFFFF42
S11303D0FFFFFFFFFFFFFFFFFFFFFFFFFFFFFFFF29
S11303E0FFFFFFFFFFFFFFFFFFFFFFFFFFFFFFFF19
S11303F0FFFFFFFFFFDFFFFFFFFFFFFF7FFFEFFFB9
S10B04000000000000000000F0
S9030000FC
