S0160000416E616C6F674A6F79737469636B2E737265636C
S11300000C9431000C944E000C944E000C944E0051
S11300100C944E000C944E000C944E000C944E0024
S11300200C944E000C944E000C944E000C944E0014
S11300300C944E000C944E000C944E000C944E0004
S11300400C944E000C944E000C944E000C944E00F4
S11300500C944E005B005E006100640067006A005F
S11300606D0011241FBECFE5D8E0DEBFCDBF10E088
S1130070A0E6B0E0E6EFF9E002C005900D92A437E7
S1130080B107D9F720E0A4E7B0E001C01D92A7377B
S1130090B207E1F70E94A6010C94F9040C94000045
S11300A0369A862F90E087309105C8F4FC01E65D0E
S11300B0FF4F0C94090281E886B911C082E886B921
S11300C00EC083E886B90BC084E886B908C085E809
S11300D086B905C086E886B902C087E886B94111A9
S11300E003C03E983F980895413019F43E9A3F98D2
S11300F00895423011F43E9A3F9A0895CF93C42F45
S113010050E020E030E084E790E00E94920087B164
S1130110CF70C82BC7B980EC86B9349A84B195B135
S1130120CF910895623449F118F4613441F008958F
S1130130633409F440C0643409F45AC008952115A5
S1130140310579F02130310509F06EC02AB381E020
S113015090E002C0880F991F4A95E2F7822B8ABB70
S113016008952AB381E090E002C0880F991F4A9550
S1130170E2F7809582238ABB08952115310579F031
S11301802130310509F050C027B381E090E002C06E
S1130190880F991F4A95E2F7822B87BB089527B3EE
S11301A081E090E002C0880F991F4A95E2F780959C
S11301B0822387BB08952115310571F02130310563
S11301C099F524B381E090E002C0880F991F4A9505
S11301D0E2F7822B84BB089524B381E090E002C04F
S11301E0880F991F4A95E2F78095822384BB08956E
S11301F02115310571F021303105B1F421B381E0CD
S113020090E002C0880F991F4A95E2F7822B81BBC8
S1130210089521B381E090E002C0880F991F4A95A8
S1130220E2F78095822381BB089588B38F70962F5F
S1130230907F892B88BBC098C19A0000C19882E442
S11302408A95F1F700C088B38F7090E1699FB0017F
S11302501124682B68BBC19A0000C19883EF91E018
S11302600197F1F700C00000089588B38F70962FAE
S1130270907F892B88BBC09AC19A0000C19882E400
S11302808A95F1F700C088B38F7090E1699FB0013F
S11302901124682B68BBC19A0000C19883EF91E0D8
S11302A00197F1F700C000000895CF93DF93EC01AC
S11302B08FEF87BB87E893E10197F1F700C0000057
S11302C062E0CE010E94150168E2CE010E94150190
S11302D06CE0CE010E94150166E0CE010E9415017A
S11302E061E0CE010E94150183EF91E00197F1F7DF
S11302F000C00000DF91CF9108950F931F93CF9317
S1130300DF93EB016881662341F08C012196C801DB
S11303100E94350169916111FACFDF91CF911F914C
S11303200F910895611108C0403178F44F70642F23
S113033060680E9415010895613039F4403128F451
S11303404F70642F606C0E9415010895CF93DF9362
S1130350CDB7DEB764970FB6F894DEBF0FBECDBF3E
S113036042E066E086E790E00E94500085E790E076
S11303700E9455010F2EF0E6CF2EF0E0DF2EF02D77
S11303808E010F5F1F4F0F2EFAE6EF2EF0E0FF2EC7
S1130390F02D40E061E486E790E00E947E009695AF
S11303A08795969587959F938F93DF92CF921F930E
S11303B00F930E940F0240E060E085E790E00E9406
S11303C09201B80185E790E00E947D0141E061E47B
S11303D086E790E00E947E0096958795969587958E
S11303E09F938F93FF92EF921F930F930E940F029C
S11303F040E061E085E790E00E949201B80185E762
S113040090E00E947D010FB6F894DEBF0FBECDBF11
S1130410C0CFEE0FFF1F0590F491E02D0994AEE0DC
S1130420B0E0E5E1F2E00C94D0040D891E8986E089
S11304308C831A8309838FEF9FE79E838D83AE019C
S1130440475E5F4F6F89788DCE0101960E9431021D
S1130450EF81F885E00FF11F10822E96E4E00C94F2
S1130460EC04ABE0B0E0E7E3F2E00C94C2046C010E
S11304707B018A01FC0117821682838181FFCCC132
S1130480CE0101963C01F6019381F70193FD85911C
S113049093FF81917F01882309F4BAC1853239F42D
S11304A093FD859193FF81917F01853229F4B601F3
S11304B090E00E942804E7CF912C212C312CFFE1FD
S11304C0F315D8F08B3279F038F4803279F0833236
S11304D0A1F4232D20611DC08D3261F0803369F4B5
S11304E0232D216016C0832D8260382EE32DE46015
S11304F03E2E2AC0F32DF8601DC037FC2DC020ED20
S1130500280F2A3040F08E32B9F436FC81C1232DF5
S11305102064322E19C036FE06C08AE0989E200D53
S11305201124922E11C0EAE02E9E200D1124222EB9
S1130530F32DF0623F2E08C08C3621F4832D8068A1
S1130540382E02C0883641F4F70193FD859193FF5C
S113055081917F018111B3CF982F9F7D9554933062
S113056028F40C5F1F4F9FE399830DC0833631F04D
S1130570833771F0833509F059C021C0F8018081B7
S113058089830E5F1F4F88248394912C530113C0D9
S11305902801F2E04F0E511CF801A080B18036FE14
S11305A003C0692D70E002C06FEF7FEFC5010E94A8
S11305B01D044C018201F32DFF773F2E16C0280144
S11305C022E0420E511CF801A080B18036FE03C027
S11305D0692D70E002C06FEF7FEFC5010E94120425
S11305E04C01F32DF0683F2E820133FC1BC0822D99
S11305F090E088169906B0F4B60180E290E00E947B
S113060028042A94F4CFF50137FC859137FE8191B3
S11306105F01B60190E00E94280421102A9421E091
S1130620821A91088114910471F7E8C0843611F09C
S1130630893641F5F80137FE07C0608171818281F6
S113064093810C5F1F4F08C060817181072E000CDD
S1130650880B990B0E5F1F4FF32DFF763F2E97FFEC
S113066009C090958095709561957F4F8F4F9F4FEE
S1130670F0683F2E2AE030E0A3010E946404882E33
S1130680861845C0853731F4232D2F7EB22E2AE0FB
S113069030E025C0932D997FB92E8F36C1F018F420
S11306A0883579F0B5C0803719F0883721F0B0C0AB
S11306B0E92FE061BE2EB4FE0DC0FB2DF460BF2E09
S11306C009C034FE0AC0292F2660B22E06C028E0D5
S11306D030E005C020E130E002C020E132E0F80162
S11306E0B7FE07C060817181828193810C5F1F4FC7
S11306F006C06081718180E090E00E5F1F4FA3010E
S11307000E946404882E8618FB2DFF773F2E36FE48
S11307100DC0232D2E7FA22E891458F434FE0BC055
S113072032FC09C0832D8E7EA82E05C0B82CA32CC4
S113073003C0B82C01C0B92CA4FE0FC0FE01E80D03
S1130740F11D8081803321F49A2D997EA92E09C050
S1130750A2FE06C0B394B39404C08A2D867809F02F
S1130760B394A3FC11C0A0FE06C0B21488F4280CF4
S1130770922C9B180EC0B21460F4B60180E290E093
S11307800E942804B394F7CFB21418F42B1802C0B3
S1130790982C212CA4FE10C0B60180E390E00E94A6
S11307A02804A2FE17C0A1FC03C088E790E002C0A1
S11307B088E590E0B6010CC08A2D867859F0A1FE38
S11307C002C08BE201C080E2A7FC8DE2B60190E09A
S11307D00E942804891438F4B60180E390E00E9452
S11307E028049A94F7CF8A94F301E80DF11D8081CF
S11307F0B60190E00E9428048110F5CF222009F46C
S113080042CEB60180E290E00E9428042A94F6CFFA
S1130810F6018681978102C08FEF9FEF2B96E2E16C
S11308200C94DE04FC010590615070400110D8F76F
S1130830809590958E0F9F1F0895FC016150704024
S113084001900110D8F7809590958E0F9F1F089501
S11308500F931F93CF93DF93FB01238121FD03C0EB
S11308608FEF9FEF2CC022FF16C046815781248151
S113087035814217530744F4A081B1819D012F5F54
S11308803F4F318320838C93268137812F5F3F4FE5
S11308903783268314C08B01EC01FB010084F185AE
S11308A0E02D0995892BE1F6D80116968D919C913E
S11308B01797019617969C938E931697CE01DF9106
S11308C0CF911F910F910895FA01AA27283051F171
S11308D0203181F1E8946F936E7F6E5F7F4F8F4F6D
S11308E09F4FAF4FB1E03ED0B4E03CD0670F781FCC
S11308F0891F9A1FA11D680F791F8A1F911DA11DB1
S11309006A0F711D811D911DA11D20D009F46894E9
S11309103F912AE0269F11243019305D3193DEF691
S1130920CF010895462F4770405D4193B3E00FD047
S1130930C9F7F6CF462F4F70405D4A3318F0495D32
S113094031FD4052419302D0A9F7EACFB4E0A69515
S11309509795879577956795BA95C9F70097610537
S1130960710508959B01AC010A2E0694579547958D
S113097037952795BA95C9F7620F731F841F951F82
S1130980A01D08952F923F924F925F926F927F9293
S11309908F929F92AF92BF92CF92DF92EF92FF928B
S11309A00F931F93CF93DF93CDB7DEB7CA1BDB0B37
S11309B00FB6F894DEBF0FBECDBF09942A883988DC
S11309C048885F846E847D848C849B84AA84B984E3
S11309D0C884DF80EE80FD800C811B81AA81B981EF
S11309E0CE0FD11D0FB6F894DEBF0FBECDBFED0103
S10909F00895F894FFCF06
S11309F658203D2025642020200059203D202564D0
S1070A062020200088
S9030000FC
